{
    "contractName": "Example",
    "abi": [
        {
            "inputs": [
                {
                    "internalType": "uint256",
                    "name": "_x",
                    "type": "uint256"
                },
                {
                    "internalType": "uint256",
                    "name": "_y",
                    "type": "uint256"
                },
                {
                    "internalType": "string",
                    "name": "_str",
                    "type": "string"
                }
            ],
            "stateMutability": "nonpayable",
            "type": "constructor"
        },
        {
            "inputs": [
                {
                    "internalType": "address",
                    "name": "adr",
                    "type": "address"
                },
                {
                    "components": [
                        {
                            "internalType": "uint256",
                            "name": "number",
                            "type": "uint256"
                        },
                        {
                            "internalType": "string",
                            "name": "str",
                            "type": "string"
                        }
                    ],
                    "internalType": "struct Example.St",
                    "name": "st",
                    "type": "tuple"
                }
            ],
            "name": "addToMap",
            "outputs": [],
            "stateMutability": "nonpayable",
            "type": "function"
        },
        {
            "inputs": [
                {
                    "internalType": "uint256",
                    "name": "",
                    "type": "uint256"
                }
            ],
            "name": "data",
            "outputs": [
                {
                    "internalType": "uint256",
                    "name": "",
                    "type": "uint256"
                }
            ],
            "stateMutability": "view",
            "type": "function"
        },
        {
            "inputs": [
                {
                    "internalType": "uint256",
                    "name": "count",
                    "type": "uint256"
                }
            ],
            "name": "init",
            "outputs": [
                {
                    "internalType": "uint256[]",
                    "name": "",
                    "type": "uint256[]"
                }
            ],
            "stateMutability": "nonpayable",
            "type": "function"
        },
        {
            "inputs": [
                {
                    "internalType": "address",
                    "name": "",
                    "type": "address"
                }
            ],
            "name": "map",
            "outputs": [
                {
                    "internalType": "uint256",
                    "name": "number",
                    "type": "uint256"
                },
                {
                    "internalType": "string",
                    "name": "str",
                    "type": "string"
                }
            ],
            "stateMutability": "view",
            "type": "function"
        },
        {
            "inputs": [
                {
                    "internalType": "string",
                    "name": "_str",
                    "type": "string"
                }
            ],
            "name": "setStr",
            "outputs": [],
            "stateMutability": "nonpayable",
            "type": "function"
        },
        {
            "inputs": [
                {
                    "internalType": "uint256",
                    "name": "x_",
                    "type": "uint256"
                }
            ],
            "name": "setX",
            "outputs": [
                {
                    "internalType": "uint256",
                    "name": "",
                    "type": "uint256"
                }
            ],
            "stateMutability": "nonpayable",
            "type": "function"
        },
        {
            "inputs": [
                {
                    "internalType": "uint256",
                    "name": "_x",
                    "type": "uint256"
                },
                {
                    "internalType": "uint256",
                    "name": "_y",
                    "type": "uint256"
                }
            ],
            "name": "setXY",
            "outputs": [
                {
                    "internalType": "uint256",
                    "name": "",
                    "type": "uint256"
                }
            ],
            "stateMutability": "nonpayable",
            "type": "function"
        },
        {
            "inputs": [
                {
                    "internalType": "uint256",
                    "name": "y_",
                    "type": "uint256"
                }
            ],
            "name": "setY",
            "outputs": [
                {
                    "internalType": "uint256",
                    "name": "",
                    "type": "uint256"
                }
            ],
            "stateMutability": "nonpayable",
            "type": "function"
        },
        {
            "inputs": [],
            "name": "str",
            "outputs": [
                {
                    "internalType": "string",
                    "name": "",
                    "type": "string"
                }
            ],
            "stateMutability": "view",
            "type": "function"
        },
        {
            "inputs": [],
            "name": "x",
            "outputs": [
                {
                    "internalType": "uint256",
                    "name": "",
                    "type": "uint256"
                }
            ],
            "stateMutability": "view",
            "type": "function"
        },
        {
            "inputs": [],
            "name": "y",
            "outputs": [
                {
                    "internalType": "uint256",
                    "name": "",
                    "type": "uint256"
                }
            ],
            "stateMutability": "view",
            "type": "function"
        }
    ],
    "bytecode": "60806040523480156200001157600080fd5b5060405162000b3a38038062000b3a83398101604081905262000034916200006c565b6000839055600182905560026200004c8282620001e4565b50505050620002b0565b634e487b7160e01b600052604160045260246000fd5b6000806000606084860312156200008257600080fd5b835160208086015160408701519295509350906001600160401b0380821115620000ab57600080fd5b818701915087601f830112620000c057600080fd5b815181811115620000d557620000d562000056565b604051601f8201601f19908116603f0116810190838211818310171562000100576200010062000056565b816040528281528a868487010111156200011957600080fd5b600093505b828410156200013d57848401860151818501870152928501926200011e565b60008684830101528096505050505050509250925092565b600181811c908216806200016a57607f821691505b6020821081036200018b57634e487b7160e01b600052602260045260246000fd5b50919050565b601f821115620001df57600081815260208120601f850160051c81016020861015620001ba5750805b601f850160051c820191505b81811015620001db57828155600101620001c6565b5050505b505050565b81516001600160401b0381111562000200576200020062000056565b620002188162000211845462000155565b8462000191565b602080601f831160018114620002505760008415620002375750858301515b600019600386901b1c1916600185901b178555620001db565b600085815260208120601f198616915b82811015620002815788860151825594840194600190910190840162000260565b5085821015620002a05787850151600019600388901b60f8161c191681555b5050505050600190811b01905550565b61087a80620002c06000396000f3fe608060405234801561001057600080fd5b50600436106100a95760003560e01c806368d466b81161007157806368d466b81461011b578063a56dfe4a14610131578063b721ef6e1461013a578063b7b0422d1461015b578063c15bae841461017b578063f0ba84401461019057600080fd5b806309f33d25146100ae5780630c55699c146100c3578063191347df146100df57806331a168a2146100f25780634018d9aa14610105575b600080fd5b6100c16100bc3660046104b9565b6101a3565b005b6100cc60005481565b6040519081526020015b60405180910390f35b6100c16100ed366004610559565b6101df565b6100cc610100366004610596565b6101ef565b6100cc6101133660046105b8565b600081905590565b6100cc6101293660046105b8565b600181905590565b6100cc60015481565b61014d6101483660046105d1565b61020c565b6040516100d6929190610632565b61016e6101693660046105b8565b6102b1565b6040516100d6919061064b565b61018361034b565b6040516100d6919061068f565b6100cc61019e3660046105b8565b6103d9565b6001600160a01b0382166000908152600460209081526040909120825181559082015182919060018201906101d8908261072b565b5050505050565b60026101eb828261072b565b5050565b600082815560018290556102038284610801565b90505b92915050565b6004602052600090815260409020805460018201805491929161022e906106a2565b80601f016020809104026020016040519081016040528092919081815260200182805461025a906106a2565b80156102a75780601f1061027c576101008083540402835291602001916102a7565b820191906000526020600020905b81548152906001019060200180831161028a57829003601f168201915b5050505050905082565b606060005b828110156102f25760036102ca8280610814565b81546001810183556000928352602090922090910155806102ea8161082b565b9150506102b6565b50600380548060200260200160405190810160405280929190818152602001828054801561033f57602002820191906000526020600020905b81548152602001906001019080831161032b575b50505050509050919050565b60028054610358906106a2565b80601f0160208091040260200160405190810160405280929190818152602001828054610384906106a2565b80156103d15780601f106103a6576101008083540402835291602001916103d1565b820191906000526020600020905b8154815290600101906020018083116103b457829003601f168201915b505050505081565b600381815481106103e957600080fd5b600091825260209091200154905081565b80356001600160a01b038116811461041157600080fd5b919050565b634e487b7160e01b600052604160045260246000fd5b600082601f83011261043d57600080fd5b813567ffffffffffffffff8082111561045857610458610416565b604051601f8301601f19908116603f0116810190828211818310171561048057610480610416565b8160405283815286602085880101111561049957600080fd5b836020870160208301376000602085830101528094505050505092915050565b600080604083850312156104cc57600080fd5b6104d5836103fa565b9150602083013567ffffffffffffffff808211156104f257600080fd5b908401906040828703121561050657600080fd5b60405160408101818110838211171561052157610521610416565b6040528235815260208301358281111561053a57600080fd5b6105468882860161042c565b6020830152508093505050509250929050565b60006020828403121561056b57600080fd5b813567ffffffffffffffff81111561058257600080fd5b61058e8482850161042c565b949350505050565b600080604083850312156105a957600080fd5b50508035926020909101359150565b6000602082840312156105ca57600080fd5b5035919050565b6000602082840312156105e357600080fd5b610203826103fa565b6000815180845260005b81811015610612576020818501810151868301820152016105f6565b506000602082860101526020601f19601f83011685010191505092915050565b82815260406020820152600061058e60408301846105ec565b6020808252825182820181905260009190848201906040850190845b8181101561068357835183529284019291840191600101610667565b50909695505050505050565b60208152600061020360208301846105ec565b600181811c908216806106b657607f821691505b6020821081036106d657634e487b7160e01b600052602260045260246000fd5b50919050565b601f82111561072657600081815260208120601f850160051c810160208610156107035750805b601f850160051c820191505b818110156107225782815560010161070f565b5050505b505050565b815167ffffffffffffffff81111561074557610745610416565b6107598161075384546106a2565b846106dc565b602080601f83116001811461078e57600084156107765750858301515b600019600386901b1c1916600185901b178555610722565b600085815260208120601f198616915b828110156107bd5788860151825594840194600190910190840161079e565b50858210156107db5787850151600019600388901b60f8161c191681555b5050505050600190811b01905550565b634e487b7160e01b600052601160045260246000fd5b80820180821115610206576102066107eb565b8082028115828204841417610206576102066107eb565b60006001820161083d5761083d6107eb565b506001019056fea2646970667358221220b31f3128d75780b7f4f6e0db8ce03f175439f39fd4ce547756695bd339c593ad64736f6c63430008110033",
    "sourcePath": "/Users/adilak31/Desktop/BUweb3.js/example.sol",
    "compiler": {
        "name": "solc",
        "version": "0.8.17+commit.8df45f5f"
    },
    "functionHashes": {
        "addToMap(address,(uint256,string))": "09f33d25",
        "data(uint256)": "f0ba8440",
        "init(uint256)": "b7b0422d",
        "map(address)": "b721ef6e",
        "setStr(string)": "191347df",
        "setX(uint256)": "4018d9aa",
        "setXY(uint256,uint256)": "31a168a2",
        "setY(uint256)": "68d466b8",
        "str()": "c15bae84",
        "x()": "0c55699c",
        "y()": "a56dfe4a"
    },
    "gasEstimates": {
        "creation": {
            "codeDepositCost": "434000",
            "executionCost": "infinite",
            "totalCost": "infinite"
        },
        "external": {
            "addToMap(address,(uint256,string))": "infinite",
            "data(uint256)": "4674",
            "init(uint256)": "infinite",
            "map(address)": "infinite",
            "setStr(string)": "infinite",
            "setX(uint256)": "22456",
            "setXY(uint256,uint256)": "infinite",
            "setY(uint256)": "22367",
            "str()": "infinite",
            "x()": "2307",
            "y()": "2306"
        }
    }
}